:020000040000FA
:06000000A1EF01F0120067
:020006000000F8
:08000800D9CFE6FFE1CFD9FFDB
:10001000E652DF6ADF50026E036A033404E20250E4
:100020002208000E035407E3050EE66EAFEC01F064
:10003000E552DF2AEFD7E552E552E7CFD9FF1200AC
:10004000D9CFE6FFE1CFD9FFE652DF6ADF50026E7B
:10005000036A033404E202503108000E035403E340
:10006000D3DFDF2AF3D7E552E552E7CFD9FF1200FD
:10007000D9CFE6FFE1CFD9FFFE0EDB50026E036A57
:100080000250800B02E08A8E01D08A9EFE0EDB5069
:10009000026E036A0250400B02E08A8C01D08A9CF7
:1000A000FE0EDB50026E036A0250200B02E08A8AC9
:1000B00001D08A9AFE0EDB50026E036A0250100BCA
:1000C00002E08A8801D08A988A848A94FE0EDB50E6
:1000D000026E036A0250080B02E08A8E01D08A9EEB
:1000E000FE0EDB50026E036A0250040B02E08A8CA3
:1000F00001D08A9CFE0EDB50026E036A0250020B96
:1001000002E08A8A01D08A9AFE0EDB50026E036AF0
:100110000250010B02E08A8801D08A988A848A946E
:10012000050EE66EAFEC01F0E552E552E7CFD9FFE0
:1001300012008A90010EE66E9BDFE5528A8004EF82
:1001400000F0D9CFE6FFE1CFD9FFFD0EDBCFF6FF00
:10015000FE0EDBCFF7FF0800F550026E036A025077
:1001600003100FE0FD0EDBCFF6FFDB2AFE0EDBCF28
:10017000F7FF01E3DB2A0800F550E66E79DFE55270
:10018000E4D7E552E7CFD9FF1200D9CFE6FFE1CFA0
:10019000D9FFFD0EDBCFE9FFFE0EDBCFEAFFEF500C
:1001A000026E036A025003100EE0FD0EDBCFE9FF82
:1001B000DB2AFE0EDBCFEAFF01E3DB2AEF50E66E1F
:1001C00057DFE552E6D7E552E7CFD9FF1200D9CF86
:1001D000E6FFE1CFD9FF8A90FE0EDBCF02F0800E62
:1001E0000224E66E45DFE5528A80E552E7CFD9FF6B
:1001F0001200D9CFE6FFE1CFD9FF8A90FE0EDB5087
:10020000E66E36DFE5528A80E552E7CFD9FF12006D
:100210008A908A9415DF8A888A8A8A848A94F4DE8E
:10022000F3DEF2DE8A848A94EFDE8A848A94ECDE3E
:100230008A988A848A94050EE66EAFEC01F0E55246
:10024000280EE66ED6DFE5520C0EE66ED2DFE552E2
:0C025000060EE66ECEDFE55299EF00F0DE
:04025C00060EF66E26
:10026000000EF76E000EF86E00010900F550656F84
:100270000900F550666F03E1656701D03DD00900C4
:10028000F550606F0900F550616F0900F550626F1D
:1002900009000900F550E96E0900F550EA6E090001
:1002A00009000900F550636F0900F550646F0900FB
:1002B0000900F6CF67F0F7CF68F0F8CF69F060C0BB
:1002C000F6FF61C0F7FF62C0F8FF0001635302E16F
:1002D000645307E00900F550EE6E6307F8E2640727
:1002E000F9D767C0F6FF68C0F7FF69C0F8FF0001E3
:0A02F0006507000E665BBFD7120021
:0602FA000ED8E66AE7ECF5
:1003000000F0E552740EE66E030EE66EA1EC00F00E
:10031000E552E552F3D71200936A0F01396B08EFEB
:0203200001F0EA
:0E032200000EF36E00EE00F0060E01D8120081
:10033000EA6002D0EE6AFCD7F350E9601200EE6A80
:02034000FCD7E8
:0E03420015EE00F025EE00F0F86A019C2EEC9E
:0E03500001F0BFEC01F07DEC01F0FBD71200D4
:02035E00FF0E90
:10036000E350E84E1200000000D000D000D0E82E8C
:04037000FAD71200A6
:0903740057656C636F6D65210093
:02037E0012006B
:020000040030CA
:0100010021DD
:0100020018E5
:010003003CC0
:01000500B743
:010006008178
:00000001FF
