:020000040000FA
:060000003AEF01F01200CE
:020006000000F8
:08000800060EF66E000EF76E05
:10001000000EF86E00010900F550656F0900F550FB
:10002000666F03E1656701D03DD00900F550606F50
:100030000900F550616F0900F550626F0900090071
:10004000F550E96E0900F550EA6E09000900090053
:10005000F550636F0900F550646F09000900F6CF91
:1000600067F0F7CF68F0F8CF69F060C0F6FF61C0C5
:10007000F7FF62C0F8FF0001635302E1645307E039
:100080000900F550EE6E6307F8E26407F9D767C020
:10009000F6FF68C0F7FF69C0F8FF00016507000EB2
:0600A000665BBFD71200F1
:0A00A600D9CFE6FFE1CFD9FF020E2B
:1000B000E1262AD88A90DE6ADD6AD9CFE9FFDACF55
:1000C000EAFFFF0ED880EE54030EED5412E3DF2A50
:1000D000010E01E3DB2ADECFE6FFDDCFE6FFCFEC4A
:1000E00000F0E552E552400EE66E1AEC01F0E552E2
:1000F000E4D7E0D7020EE15C02E2E16AE552E16E8C
:10010000E552E7CFD9FF12000F01386B396B926AC5
:10011000936A896A8A689298040EE66EFFEC00F092
:10012000E5523F0EE66EE66899EC00F0E552E552C6
:020130001200BB
:0E013200D9CFE6FFDACFE6FFE1CFD9FFE2CF6B
:10014000DAFF0F010C0E546FF30E4817FC0EDB5054
:10015000C00BE8380F0B481392980C0E481506E1B7
:10016000BA94FD0EDB50BB6EBA8413D00C0E48154A
:10017000040806E15195FD0EDBCF52FF518509D0F1
:100180000C0E4815080805E14A95FD0EDBCF4BFF24
:0E0190004A85E552E5CFDAFFE7CFD9FF12002E
:02019E00D9CFB7
:1001A000E6FFDACFE6FFE1CFD9FFE2CFDAFFE65292
:1001B000E652FC0EDBCF02F0FD0EDBCF03F0060EA5
:1001C000D89002360336E804FBE102C0DEFF03C02C
:1001D000DDFF010EDBCF55FFDF50E840E8403F0B6D
:1001E000300B026ECF0E0F0154150210546FE55202
:0E01F000E552E552E5CFDAFFE7CFD9FF120066
:0201FE00D9CF57
:10020000E6FFDACFE6FFE1CFD9FFE2CFDAFFFD0E5E
:10021000DB50FB0BBA6EBC6A9E92FD0EDBAE02D0C9
:100220009D8201D09D92BA84E552E5CFDAFFE7CFF7
:04023000D9FF1200E0
:0C023400FF0EE350046E480E01D04C0E8B
:10024000E76EE72EFED7E76AE72EFED7042EF7D734
:040250000000120098
:0C025400000EF36E00EE00F0060E01D864
:100260001200EA6002D0EE6AFCD7F350E960120097
:04027000EE6AFCD75F
:0C02740015EE00F025EE00F0F86A019C89
:1002800004EC00F048EC01F053EC00F0FBD7120056
:0202900012005A
:020000040030CA
:0100010021DD
:0100020018E5
:010003003CC0
:01000500B743
:010006008178
:00000001FF
