:020000040000FA
:060000007DEF02F012008A
:020006000000F8
:08000800D9CFE6FFE1CFD9FFDB
:10001000E652DF6ADF50220807E3050EE66E8BEC3E
:1000200002F0E552DF2AF6D7E552E552E7CFD9FFD5
:100030001200D9CFE6FFE1CFD9FFE652DF6ADF50E9
:10004000310803E3E1DFDF2AFAD7E552E552E7CFD3
:10005000D9FF1200D9CFE6FFE1CFD9FFFE0EDBAE0C
:1000600002D08A8E01D08A9EDBAC02D08A8C01D06D
:100070008A9CDBAA02D08A8A01D08A9ADBA802D0A5
:100080008A8801D08A988A848A94DBA602D08A8ED4
:1000900001D08A9EDBA402D08A8C01D08A9CDBA28C
:1000A00002D08A8A01D08A9ADBA002D08A8801D045
:1000B0008A988A848A94050EE66E8BEC02F0E552EB
:1000C000E552E7CFD9FF12008A90010EE66EC2DF3B
:1000D000E5528A8004EF00F0D9CFE6FFE1CFD9FFE7
:1000E000FD0EDBCFF6FFFE0EDBCFF7FF0800F5506D
:1000F0000FE0FD0EDBCFF6FFDB2AFE0EDBCFF7FFB6
:1001000001E3DB2A0800F550E66EA4DFE552E8D7EC
:10011000E552E7CFD9FF1200D9CFE6FFE1CFD9FFF3
:10012000FD0EDBCFE9FFFE0EDBCFEAFFEF500EE066
:10013000FD0EDBCFE9FFDB2AFE0EDBCFEAFF01E39A
:10014000DB2AEF50E66E86DFE552EAD7E552E7CFCD
:10015000D9FF1200D9CFE6FFE1CFD9FF8A90FE0E7A
:10016000DB50800FE66E76DFE5528A80E552E7CFFE
:10017000D9FF1200D9CFE6FFE1CFD9FF8A90FE0E5A
:10018000DBCFE6FF67DFE5528A80E552E7CFD9FF94
:1001900012008A908A944DDF8A888A8A8A848A9497
:1001A00033DF32DF31DF8A848A942EDF8A848A94B7
:1001B0002BDF8A988A848A94050EE66E8BEC02F017
:1001C000E552280EE66ED6DFE5520C0EE66ED2DF63
:0E01D000E552060EE66ECEDFE55264EF00F05B
:0201DE00D9CF77
:1001E000E6FFDACFE6FFFA0EE3CFD9FFFB0EE3CF4F
:1001F000DAFFFD0EE35209E72D0EDE6EFC0EE31E64
:10020000E32AFD0ED8B4E306E31EE652E652E652B8
:10021000FD0EE124E76EFF0EE220E46EE652F70EDB
:10022000E3CFE6FFF70EE3CFE6FF5FEC01F0F90E58
:10023000E124E96EFF0EE220EA6E4FEC01F00AE1E4
:100240004CEC01F009E14FEC01F008E14CEC01F05D
:1002500007E108D05AEC01F055EC01F05AEC01F03E
:1002600055EC01F05AEC01F0DE6AF90EE126FF0EC2
:10027000E222FF0EE3CFDAFFE552FF0EE3CFD9FF14
:10028000E552FC0EE124E96EFF0EE220EA6EEECFAD
:10029000F3FFEFCFF4FF1200EF380F0B1200EF5017
:1002A0000F0B02E1EE52D8841200EF380F0B300F23
:1002B000DE6E1200EE500F0B300FDE6E1200FC0EE1
:1002C000E3CFE9FFFD0EE3CFEAFF100EE66EEE6A24
:1002D000EE6AEF6AD890FD0EE336FE0EE336ED3699
:1002E000ED36EF36FF0EE30609E080EC01F0EE524A
:1002F00080EC01F0EE5280EC01F0EDD7E56E1200DB
:10030000030EEF24E8B6EF6E300EEF24E8BEEF6E7A
:02031000000CDF
:0E031200D9CFE6FFE1CFD9FF050EE126040E9C
:10032000DB6A6FD8C9EC00F064EC00F0E66AAAEC76
:1003300000F0E552300EE66E050EE66E6CEC00F055
:10034000E552E5520C0EE66EAAEC00F0E552680E9E
:10035000E66E2AEC00F0E552740EE66E2AEC00F030
:10036000E552310EE66E2AEC00F0E552330EE66EF1
:100370002AEC00F0E552D9CFE6FFDACFE6FF040E13
:10038000DBCFE6FFE66AEFEC00F0E552E552E5521E
:10039000E552400EE66EAAEC00F0E5522C0EE66E39
:1003A000050EE66E6CEC00F0E552E552400EE66E8E
:1003B000AAEC00F0E552D9CFE6FFDACFE6FF8CECED
:1003C00000F0E552E552450EE66EAAEC00F0E5526B
:1003D000040EDBCFE6FF2AEC00F0E552040EDB2A28
:1003E000320EE66E56EC02F0E552C5D7FFD7050E89
:1003F000E15C02E2E16AE552E16EE552E7CFD9FF46
:0E04000012000F01386B396B926A936A12007A
:02040E00060ED8
:10041000F66E000EF76E000EF86E00010900F55042
:10042000656F0900F550666F03E1656701D03DD047
:100430000900F550606F0900F550616F0900F55033
:10044000626F09000900F550E96E0900F550EA6E87
:10045000090009000900F550636F0900F550646F49
:1004600009000900F6CF67F0F7CF68F0F8CF69F020
:1004700060C0F6FF61C0F7FF62C0F8FF0001635380
:1004800002E1645307E00900F550EE6E6307F8E2FD
:100490006407F9D767C0F6FF68C0F7FF69C0F8FFC7
:0C04A00000016507000E665BBFD712006C
:0404AC00FF0EE3500C
:1004B000036EEF0E01D0F30EE76EE72E5DEF02F054
:1004C0000C0E026EE76AE72E63EF02F0022E62EF77
:0A04D00002F0032E5BEF02F01200B1
:0604DA00000EF36E00EEBF
:1004E00000F0060E01D81200EA6002D0EE6AFCD7D6
:0A04F000F350E9601200EE6AFCD739
:0604FA0015EE00F025EEF6
:1005000000F0F86A019C07EC02F09EEC02F089EC26
:0605100001F0FBD7120010
:0A051600FF0EE350E84E1200000053
:0C05200000D000D000D0E82EFAD7120066
:04052C00202020006B
:0C05300048656C6C6F20576F726C6400A3
:02053C001200AB
:020000040030CA
:0100010021DD
:0100020018E5
:010003003CC0
:01000500B743
:010006008178
:00000001FF
